{
  "contractName": "PropertyRegistry",
  "abi": [
    {
      "inputs": [],
      "payable": false,
      "stateMutability": "nonpayable",
      "type": "constructor"
    },
    {
      "anonymous": false,
      "inputs": [
        {
          "indexed": false,
          "internalType": "string",
          "name": "currentOwner",
          "type": "string"
        },
        {
          "indexed": false,
          "internalType": "string",
          "name": "newOwner",
          "type": "string"
        }
      ],
      "name": "OwnerSet",
      "type": "event"
    },
    {
      "constant": true,
      "inputs": [],
      "name": "getProperty",
      "outputs": [
        {
          "internalType": "string",
          "name": "",
          "type": "string"
        }
      ],
      "payable": false,
      "stateMutability": "view",
      "type": "function"
    },
    {
      "constant": true,
      "inputs": [],
      "name": "getOwnerList",
      "outputs": [
        {
          "internalType": "string[]",
          "name": "",
          "type": "string[]"
        }
      ],
      "payable": false,
      "stateMutability": "view",
      "type": "function"
    },
    {
      "constant": true,
      "inputs": [],
      "name": "getCurrentOwner",
      "outputs": [
        {
          "internalType": "string",
          "name": "",
          "type": "string"
        }
      ],
      "payable": false,
      "stateMutability": "view",
      "type": "function"
    },
    {
      "constant": false,
      "inputs": [
        {
          "internalType": "string",
          "name": "newOwner",
          "type": "string"
        }
      ],
      "name": "changeOwner",
      "outputs": [],
      "payable": false,
      "stateMutability": "nonpayable",
      "type": "function"
    }
  ],
  "bytecode": "0x608060405234801561001057600080fd5b506040518060400160405280601d81526020017f313233204d61696e2053742c20426f756c64657220434f2038303330330000008152506000908051906020019061005c9291906100fa565b506040518060400160405280600681526020017f3132333435360000000000000000000000000000000000000000000000000000815250600190805190602001906100a89291906100fa565b506002600190806001815401808255809150509060018203906000526020600020016000909192909190915090805460018160011615610100020316600290046100f392919061017a565b5050610226565b828054600181600116156101000203166002900490600052602060002090601f016020900481019282601f1061013b57805160ff1916838001178555610169565b82800160010185558215610169579182015b8281111561016857825182559160200191906001019061014d565b5b5090506101769190610201565b5090565b828054600181600116156101000203166002900490600052602060002090601f016020900481019282601f106101b357805485556101f0565b828001600101855582156101f057600052602060002091601f016020900482015b828111156101ef5782548255916001019190600101906101d4565b5b5090506101fd9190610201565b5090565b61022391905b8082111561021f576000816000905550600101610207565b5090565b90565b61083b806102356000396000f3fe608060405234801561001057600080fd5b506004361061004c5760003560e01c80630775107014610051578063581003701461006f578063a18a186b1461008d578063faec4db4146100ab575b600080fd5b6100596100c7565b604051610066919061066d565b60405180910390f35b610077610169565b604051610084919061064b565b60405180910390f35b610095610252565b6040516100a2919061066d565b60405180910390f35b6100c560048036036100c09190810190610480565b6102f4565b005b606060008054600181600116156101000203166002900480601f01602080910402602001604051908101604052809291908181526020018280546001816001161561010002031660029004801561015f5780601f106101345761010080835404028352916020019161015f565b820191906000526020600020905b81548152906001019060200180831161014257829003601f168201915b5050505050905090565b60606002805480602002602001604051908101604052809291908181526020016000905b82821015610249578382906000526020600020018054600181600116156101000203166002900480601f0160208091040260200160405190810160405280929190818152602001828054600181600116156101000203166002900480156102355780601f1061020a57610100808354040283529160200191610235565b820191906000526020600020905b81548152906001019060200180831161021857829003601f168201915b50505050508152602001906001019061018d565b50505050905090565b606060018054600181600116156101000203166002900480601f0160208091040260200160405190810160405280929190818152602001828054600181600116156101000203166002900480156102ea5780601f106102bf576101008083540402835291602001916102ea565b820191906000526020600020905b8154815290600101906020018083116102cd57829003601f168201915b5050505050905090565b7fb0f7b2d7ac1e296b3a73f857feeaecbda10cf5307cb947b5d0bca914468d991c60018260405161032692919061068f565b60405180910390a18060019080519060200190610344929190610387565b506002819080600181540180825580915050906001820390600052602060002001600090919290919091509080519060200190610382929190610387565b505050565b828054600181600116156101000203166002900490600052602060002090601f016020900481019282601f106103c857805160ff19168380011785556103f6565b828001600101855582156103f6579182015b828111156103f55782518255916020019190600101906103da565b5b5090506104039190610407565b5090565b61042991905b8082111561042557600081600090555060010161040d565b5090565b90565b600082601f83011261043d57600080fd5b813561045061044b826106f3565b6106c6565b9150808252602083016020830185838301111561046c57600080fd5b6104778382846107a5565b50505092915050565b60006020828403121561049257600080fd5b600082013567ffffffffffffffff8111156104ac57600080fd5b6104b88482850161042c565b91505092915050565b60006104cd8383610583565b905092915050565b60006104e082610744565b6104ea8185610772565b9350836020820285016104fc8561071f565b8060005b85811015610538578484038952815161051985826104c1565b945061052483610765565b925060208a01995050600181019050610500565b50829750879550505050505092915050565b60006105558261075a565b61055f8185610794565b935061056f8185602086016107b4565b610578816107e7565b840191505092915050565b600061058e8261074f565b6105988185610783565b93506105a88185602086016107b4565b6105b1816107e7565b840191505092915050565b6000815460018116600081146105d957600181146105ff57610643565b607f60028304166105ea8187610794565b955060ff198316865260208601935050610643565b6002820461060d8187610794565b95506106188561072f565b60005b8281101561063a5781548189015260018201915060208101905061061b565b80880195505050505b505092915050565b6000602082019050818103600083015261066581846104d5565b905092915050565b60006020820190508181036000830152610687818461054a565b905092915050565b600060408201905081810360008301526106a981856105bc565b905081810360208301526106bd818461054a565b90509392505050565b6000604051905081810181811067ffffffffffffffff821117156106e957600080fd5b8060405250919050565b600067ffffffffffffffff82111561070a57600080fd5b601f19601f8301169050602081019050919050565b6000819050602082019050919050565b60008190508160005260206000209050919050565b600081519050919050565b600081519050919050565b600081519050919050565b6000602082019050919050565b600082825260208201905092915050565b600082825260208201905092915050565b600082825260208201905092915050565b82818337600083830152505050565b60005b838110156107d25780820151818401526020810190506107b7565b838111156107e1576000848401525b50505050565b6000601f19601f830116905091905056fea365627a7a72315820c7f1ef18f3ffc8db067b41a8fab031626166b0faf869f1a5b835e6ea1ef0d1976c6578706572696d656e74616cf564736f6c63430005100040",
  "source": "// SPDX-License-Identifier: MIT\npragma solidity >=0.4.21; \npragma experimental ABIEncoderV2;\n\ncontract PropertyRegistry {        \n          \n    string property;\n    string currentOwner;\n    string[] ownerList;\n              \n    constructor() public {                  \n        property = \"123 Main St, Boulder CO 80303\";  \n        currentOwner = \"123456\";\n        ownerList.push(currentOwner);\n    }        \n    \n    event OwnerSet(string currentOwner, string newOwner);\n\n    function getProperty() public view returns (string memory) {        \n        return property;        \n    }  \n    \n    function getOwnerList() public view returns (string[] memory) {\n        return ownerList;\n    }\n    \n    function getCurrentOwner() public view returns (string memory) {  \n        return currentOwner;        \n    }\n    \n    function changeOwner(string memory newOwner) public {\n        emit OwnerSet(currentOwner, newOwner);\n        currentOwner = newOwner;\n        ownerList.push(newOwner);\n    }\n    \n}",
  "sourcePath": "/Users/edanzer/Projects/truffle/real-estate-app/contracts/PropertyRegistry.sol",
  "compiler": {
    "name": "solc",
    "version": "0.5.16+commit.9c3226ce.Emscripten.clang"
  },
  "schemaVersion": "3.4.3",
  "updatedAt": "2021-09-21T18:30:47.704Z",
  "networkType": "ethereum",
  "devdoc": {
    "methods": {}
  },
  "userdoc": {
    "methods": {}
  }
}